{
  "contractName": "UlyssesContract",
  "abi": [
    {
      "inputs": [],
      "stateMutability": "nonpayable",
      "type": "constructor"
    },
    {
      "inputs": [
        {
          "internalType": "address",
          "name": "",
          "type": "address"
        }
      ],
      "name": "Vaults",
      "outputs": [
        {
          "internalType": "address",
          "name": "User",
          "type": "address"
        },
        {
          "internalType": "uint256",
          "name": "amount",
          "type": "uint256"
        },
        {
          "internalType": "bool",
          "name": "isLocked",
          "type": "bool"
        },
        {
          "internalType": "uint256",
          "name": "timeLockedAt",
          "type": "uint256"
        },
        {
          "internalType": "uint256",
          "name": "time",
          "type": "uint256"
        }
      ],
      "stateMutability": "view",
      "type": "function",
      "constant": true
    },
    {
      "inputs": [
        {
          "internalType": "address",
          "name": "",
          "type": "address"
        }
      ],
      "name": "balances",
      "outputs": [
        {
          "internalType": "uint256",
          "name": "",
          "type": "uint256"
        }
      ],
      "stateMutability": "view",
      "type": "function",
      "constant": true
    },
    {
      "inputs": [],
      "name": "showCurrentTimestamp",
      "outputs": [
        {
          "internalType": "uint256",
          "name": "",
          "type": "uint256"
        }
      ],
      "stateMutability": "nonpayable",
      "type": "function"
    },
    {
      "inputs": [],
      "name": "forceWithdraw",
      "outputs": [],
      "stateMutability": "payable",
      "type": "function",
      "payable": true
    },
    {
      "inputs": [],
      "name": "deposit",
      "outputs": [],
      "stateMutability": "payable",
      "type": "function",
      "payable": true
    },
    {
      "inputs": [
        {
          "internalType": "uint256",
          "name": "_timeToLock",
          "type": "uint256"
        }
      ],
      "name": "createVault",
      "outputs": [],
      "stateMutability": "nonpayable",
      "type": "function"
    },
    {
      "inputs": [],
      "name": "showVault",
      "outputs": [
        {
          "internalType": "address",
          "name": "",
          "type": "address"
        },
        {
          "internalType": "uint256",
          "name": "",
          "type": "uint256"
        },
        {
          "internalType": "bool",
          "name": "",
          "type": "bool"
        },
        {
          "internalType": "uint256",
          "name": "",
          "type": "uint256"
        },
        {
          "internalType": "uint256",
          "name": "",
          "type": "uint256"
        },
        {
          "internalType": "uint256",
          "name": "",
          "type": "uint256"
        }
      ],
      "stateMutability": "nonpayable",
      "type": "function"
    },
    {
      "inputs": [],
      "name": "withdraw",
      "outputs": [],
      "stateMutability": "payable",
      "type": "function",
      "payable": true
    },
    {
      "inputs": [],
      "name": "showBalance",
      "outputs": [
        {
          "internalType": "uint256",
          "name": "",
          "type": "uint256"
        }
      ],
      "stateMutability": "view",
      "type": "function",
      "constant": true
    }
  ],
  "bytecode": "0x608060405234801561001057600080fd5b50336000806101000a81548173ffffffffffffffffffffffffffffffffffffffff021916908373ffffffffffffffffffffffffffffffffffffffff1602179055506117de806100606000396000f3fe6080604052600436106100865760003560e01c806381b2d07b1161005957806381b2d07b1461011d5780639abbdf4b14610148578063b7e6bd7714610171578063d0e30db01461019c578063eb70095d146101a657610086565b806327e235e31461008b5780633ccfd60b146100c85780634d9d6763146100d25780637be80b3914610113575b600080fd5b34801561009757600080fd5b506100b260048036038101906100ad919061113c565b6101d6565b6040516100bf9190611593565b60405180910390f35b6100d06101ee565b005b3480156100de57600080fd5b506100f960048036038101906100f4919061113c565b6104e1565b60405161010a95949392919061141f565b60405180910390f35b61011b610544565b005b34801561012957600080fd5b50610132610a33565b60405161013f9190611593565b60405180910390f35b34801561015457600080fd5b5061016f600480360381019061016a9190611165565b610a7a565b005b34801561017d57600080fd5b50610186610d85565b6040516101939190611593565b60405180910390f35b6101a4610d8d565b005b3480156101b257600080fd5b506101bb610de5565b6040516101cd96959493929190611472565b60405180910390f35b60016020528060005260406000206000915090505481565b600260003373ffffffffffffffffffffffffffffffffffffffff1673ffffffffffffffffffffffffffffffffffffffff16815260200190815260200160002060040154600260003373ffffffffffffffffffffffffffffffffffffffff1673ffffffffffffffffffffffffffffffffffffffff1681526020019081526020016000206003015461027e91906115bf565b4211156102e1576000600260003373ffffffffffffffffffffffffffffffffffffffff1673ffffffffffffffffffffffffffffffffffffffff16815260200190815260200160002060020160006101000a81548160ff0219169083151502179055505b60001515600260003373ffffffffffffffffffffffffffffffffffffffff1673ffffffffffffffffffffffffffffffffffffffff16815260200190815260200160002060020160009054906101000a900460ff16151514610377576040517f08c379a000000000000000000000000000000000000000000000000000000000815260040161036e90611533565b60405180910390fd5b6000600160003373ffffffffffffffffffffffffffffffffffffffff1673ffffffffffffffffffffffffffffffffffffffff1681526020019081526020016000205414156103fa576040517f08c379a00000000000000000000000000000000000000000000000000000000081526004016103f190611513565b60405180910390fd5b6000600260003373ffffffffffffffffffffffffffffffffffffffff1673ffffffffffffffffffffffffffffffffffffffff16815260200190815260200160002060010154905080600160003373ffffffffffffffffffffffffffffffffffffffff1673ffffffffffffffffffffffffffffffffffffffff168152602001908152602001600020600082825461049091906116a0565b925050819055503373ffffffffffffffffffffffffffffffffffffffff166108fc829081150290604051600060405180830381858888f193505050501580156104dd573d6000803e3d6000fd5b5050565b60026020528060005260406000206000915090508060000160009054906101000a900473ffffffffffffffffffffffffffffffffffffffff16908060010154908060020160009054906101000a900460ff16908060030154908060040154905085565b600260003373ffffffffffffffffffffffffffffffffffffffff1673ffffffffffffffffffffffffffffffffffffffff16815260200190815260200160002060040154600260003373ffffffffffffffffffffffffffffffffffffffff1673ffffffffffffffffffffffffffffffffffffffff168152602001908152602001600020600301546105d491906115bf565b421115610637576000600260003373ffffffffffffffffffffffffffffffffffffffff1673ffffffffffffffffffffffffffffffffffffffff16815260200190815260200160002060020160006101000a81548160ff0219169083151502179055505b60001515600260003373ffffffffffffffffffffffffffffffffffffffff1673ffffffffffffffffffffffffffffffffffffffff16815260200190815260200160002060020160009054906101000a900460ff16151514156106ce576040517f08c379a00000000000000000000000000000000000000000000000000000000081526004016106c590611553565b60405180910390fd5b6000600160003373ffffffffffffffffffffffffffffffffffffffff1673ffffffffffffffffffffffffffffffffffffffff168152602001908152602001600020541415610751576040517f08c379a0000000000000000000000000000000000000000000000000000000008152600401610748906114d3565b60405180910390fd5b6000604b6064600160003373ffffffffffffffffffffffffffffffffffffffff1673ffffffffffffffffffffffffffffffffffffffff168152602001908152602001600020546107a19190611615565b6107ab9190611646565b9050600060196064600160003373ffffffffffffffffffffffffffffffffffffffff1673ffffffffffffffffffffffffffffffffffffffff168152602001908152602001600020546107fd9190611615565b6108079190611646565b90506000600160003373ffffffffffffffffffffffffffffffffffffffff1673ffffffffffffffffffffffffffffffffffffffff168152602001908152602001600020819055506000600260003373ffffffffffffffffffffffffffffffffffffffff1673ffffffffffffffffffffffffffffffffffffffff168152602001908152602001600020600101819055506000600260003373ffffffffffffffffffffffffffffffffffffffff1673ffffffffffffffffffffffffffffffffffffffff16815260200190815260200160002060020160006101000a81548160ff0219169083151502179055506000600260003373ffffffffffffffffffffffffffffffffffffffff1673ffffffffffffffffffffffffffffffffffffffff168152602001908152602001600020600401819055506000600260003373ffffffffffffffffffffffffffffffffffffffff1673ffffffffffffffffffffffffffffffffffffffff168152602001908152602001600020600301819055503373ffffffffffffffffffffffffffffffffffffffff166108fc839081150290604051600060405180830381858888f193505050501580156109c7573d6000803e3d6000fd5b5060008054906101000a900473ffffffffffffffffffffffffffffffffffffffff1673ffffffffffffffffffffffffffffffffffffffff166108fc829081150290604051600060405180830381858888f19350505050158015610a2e573d6000803e3d6000fd5b505050565b6000600160003373ffffffffffffffffffffffffffffffffffffffff1673ffffffffffffffffffffffffffffffffffffffff16815260200190815260200160002054905090565b6000600160003373ffffffffffffffffffffffffffffffffffffffff1673ffffffffffffffffffffffffffffffffffffffff1681526020019081526020016000205411610afc576040517f08c379a0000000000000000000000000000000000000000000000000000000008152600401610af3906114f3565b60405180910390fd5b60001515600260003373ffffffffffffffffffffffffffffffffffffffff1673ffffffffffffffffffffffffffffffffffffffff16815260200190815260200160002060020160009054906101000a900460ff16151514610b92576040517f08c379a0000000000000000000000000000000000000000000000000000000008152600401610b8990611573565b60405180910390fd5b33600260003373ffffffffffffffffffffffffffffffffffffffff1673ffffffffffffffffffffffffffffffffffffffff16815260200190815260200160002060000160006101000a81548173ffffffffffffffffffffffffffffffffffffffff021916908373ffffffffffffffffffffffffffffffffffffffff160217905550600160003373ffffffffffffffffffffffffffffffffffffffff1673ffffffffffffffffffffffffffffffffffffffff16815260200190815260200160002054600260003373ffffffffffffffffffffffffffffffffffffffff1673ffffffffffffffffffffffffffffffffffffffff168152602001908152602001600020600101819055506001600260003373ffffffffffffffffffffffffffffffffffffffff1673ffffffffffffffffffffffffffffffffffffffff16815260200190815260200160002060020160006101000a81548160ff02191690831515021790555042600260003373ffffffffffffffffffffffffffffffffffffffff1673ffffffffffffffffffffffffffffffffffffffff1681526020019081526020016000206003018190555080600260003373ffffffffffffffffffffffffffffffffffffffff1673ffffffffffffffffffffffffffffffffffffffff1681526020019081526020016000206004018190555050565b600042905090565b34600160003373ffffffffffffffffffffffffffffffffffffffff1673ffffffffffffffffffffffffffffffffffffffff1681526020019081526020016000206000828254610ddc91906115bf565b92505081905550565b600080600080600080600260003373ffffffffffffffffffffffffffffffffffffffff1673ffffffffffffffffffffffffffffffffffffffff16815260200190815260200160002060040154600260003373ffffffffffffffffffffffffffffffffffffffff1673ffffffffffffffffffffffffffffffffffffffff16815260200190815260200160002060030154610e7e91906115bf565b421115610ee1576000600260003373ffffffffffffffffffffffffffffffffffffffff1673ffffffffffffffffffffffffffffffffffffffff16815260200190815260200160002060020160006101000a81548160ff0219169083151502179055505b600042600260003373ffffffffffffffffffffffffffffffffffffffff1673ffffffffffffffffffffffffffffffffffffffff16815260200190815260200160002060040154600260003373ffffffffffffffffffffffffffffffffffffffff1673ffffffffffffffffffffffffffffffffffffffff16815260200190815260200160002060030154610f7491906115bf565b610f7e91906116a0565b9050600260003373ffffffffffffffffffffffffffffffffffffffff1673ffffffffffffffffffffffffffffffffffffffff16815260200190815260200160002060000160009054906101000a900473ffffffffffffffffffffffffffffffffffffffff16600260003373ffffffffffffffffffffffffffffffffffffffff1673ffffffffffffffffffffffffffffffffffffffff16815260200190815260200160002060010154600260003373ffffffffffffffffffffffffffffffffffffffff1673ffffffffffffffffffffffffffffffffffffffff16815260200190815260200160002060020160009054906101000a900460ff16600260003373ffffffffffffffffffffffffffffffffffffffff1673ffffffffffffffffffffffffffffffffffffffff16815260200190815260200160002060030154600260003373ffffffffffffffffffffffffffffffffffffffff1673ffffffffffffffffffffffffffffffffffffffff168152602001908152602001600020600401548596509650965096509650965050909192939495565b6000813590506111218161177a565b92915050565b60008135905061113681611791565b92915050565b60006020828403121561114e57600080fd5b600061115c84828501611112565b91505092915050565b60006020828403121561117757600080fd5b600061118584828501611127565b91505092915050565b611197816116d4565b82525050565b6111a6816116e6565b82525050565b60006111b96022836115ae565b91507f596f7520646f206e6f74206861766520616e7920455448206465706f7369746560008301527f64210000000000000000000000000000000000000000000000000000000000006020830152604082019050919050565b600061121f6041836115ae565b91507f496e73756666696369656e742062616c616e636520746f207369676e20556c7960008301527f7373657320436f6e747261637421204465706f7369742045544820666972737460208301527f21000000000000000000000000000000000000000000000000000000000000006040830152606082019050919050565b60006112ab602b836115ae565b91507f596f7520646f206e6f74206861766520616e792066756e647320696e2074686960008301527f7320636f6e7472616374210000000000000000000000000000000000000000006020830152604082019050919050565b6000611311601b836115ae565b91507f596f7572207661756c74206973207374696c6c206c6f636b65642100000000006000830152602082019050919050565b60006113516034836115ae565b91507f596f757220455448206973206e6f74206c6f636b65642c20757365206e6f726d60008301527f616c20776974686472617720696e7374656164210000000000000000000000006020830152604082019050919050565b60006113b76021836115ae565b91507f596f75207374696c6c20686176652061207369676e656420636f6e747261637460008301527f21000000000000000000000000000000000000000000000000000000000000006020830152604082019050919050565b61141981611712565b82525050565b600060a082019050611434600083018861118e565b6114416020830187611410565b61144e604083018661119d565b61145b6060830185611410565b6114686080830184611410565b9695505050505050565b600060c082019050611487600083018961118e565b6114946020830188611410565b6114a1604083018761119d565b6114ae6060830186611410565b6114bb6080830185611410565b6114c860a0830184611410565b979650505050505050565b600060208201905081810360008301526114ec816111ac565b9050919050565b6000602082019050818103600083015261150c81611212565b9050919050565b6000602082019050818103600083015261152c8161129e565b9050919050565b6000602082019050818103600083015261154c81611304565b9050919050565b6000602082019050818103600083015261156c81611344565b9050919050565b6000602082019050818103600083015261158c816113aa565b9050919050565b60006020820190506115a86000830184611410565b92915050565b600082825260208201905092915050565b60006115ca82611712565b91506115d583611712565b9250827fffffffffffffffffffffffffffffffffffffffffffffffffffffffffffffffff0382111561160a5761160961171c565b5b828201905092915050565b600061162082611712565b915061162b83611712565b92508261163b5761163a61174b565b5b828204905092915050565b600061165182611712565b915061165c83611712565b9250817fffffffffffffffffffffffffffffffffffffffffffffffffffffffffffffffff04831182151516156116955761169461171c565b5b828202905092915050565b60006116ab82611712565b91506116b683611712565b9250828210156116c9576116c861171c565b5b828203905092915050565b60006116df826116f2565b9050919050565b60008115159050919050565b600073ffffffffffffffffffffffffffffffffffffffff82169050919050565b6000819050919050565b7f4e487b7100000000000000000000000000000000000000000000000000000000600052601160045260246000fd5b7f4e487b7100000000000000000000000000000000000000000000000000000000600052601260045260246000fd5b611783816116d4565b811461178e57600080fd5b50565b61179a81611712565b81146117a557600080fd5b5056fea2646970667358221220e3dd6c6fbbc331a5ce37ef0aea11ed949e93bea4498eee1aec7c36be3fe6428564736f6c63430008000033",
  "immutableReferences": {},
  "source": "pragma solidity ^0.8.0;\r\n\r\ncontract UlyssesContract{\r\n    \r\n    address owner;\r\n    \r\n    constructor() public {\r\n        owner = msg.sender;\r\n    }\r\n\r\n    struct Locker {\r\n        address User;\r\n        uint amount;\r\n        bool isLocked;\r\n        uint timeLockedAt;\r\n        uint time;\r\n    } \r\n\r\n    mapping (address => uint) public balances;\r\n    mapping (address => Locker) public Vaults;\r\n    \r\n    \r\n    function showCurrentTimestamp() public returns(uint){\r\n        return block.timestamp;\r\n    }\r\n    function forceWithdraw() public payable {\r\n           if(block.timestamp > Vaults[msg.sender].timeLockedAt + Vaults[msg.sender].time){\r\n            Vaults[msg.sender].isLocked = false;\r\n        }\r\n        require(Vaults[msg.sender].isLocked != false, \"Your ETH is not locked, use normal withdraw instead!\");\r\n        require(balances[msg.sender] != 0, \"You do not have any ETH deposited!\");\r\n        uint toTransfer = balances[msg.sender] / 100 * 75;\r\n        uint donation = balances[msg.sender] / 100 * 25;\r\n        balances[msg.sender] = 0;\r\n        Vaults[msg.sender].amount = 0;\r\n        Vaults[msg.sender].isLocked = false;\r\n        Vaults[msg.sender].time = 0;\r\n        Vaults[msg.sender].timeLockedAt = 0;\r\n        payable(msg.sender).transfer(toTransfer);\r\n        payable(owner).transfer(donation);\r\n    }\r\n    \r\n\r\n    function deposit() public payable {\r\n\r\n        balances[msg.sender] += msg.value;\r\n    }\r\n\r\n\r\n    function createVault(uint _timeToLock) public {\r\n        require(balances[msg.sender] > 0, \"Insufficient balance to sign Ulysses Contract! Deposit ETH first!\");\r\n        require(Vaults[msg.sender].isLocked == false, \"You still have a signed contract!\");\r\n        Vaults[msg.sender].User = msg.sender;\r\n        Vaults[msg.sender].amount = balances[msg.sender];\r\n        Vaults[msg.sender].isLocked = true;\r\n        Vaults[msg.sender].timeLockedAt = block.timestamp;\r\n        Vaults[msg.sender].time = _timeToLock;\r\n    }\r\n    \r\n    function showVault() public returns(address, uint, bool, uint, uint, uint){\r\n        \r\n        if(block.timestamp > Vaults[msg.sender].timeLockedAt + Vaults[msg.sender].time){\r\n            Vaults[msg.sender].isLocked = false;\r\n        }\r\n                   uint timeLeft = Vaults[msg.sender].timeLockedAt + Vaults[msg.sender].time - block.timestamp;\r\n       return (Vaults[msg.sender].User, Vaults[msg.sender].amount, Vaults[msg.sender].isLocked, Vaults[msg.sender].timeLockedAt, Vaults[msg.sender].time, timeLeft);\r\n    }\r\n    \r\n    function withdraw() public payable {\r\n        if(block.timestamp > Vaults[msg.sender].timeLockedAt + Vaults[msg.sender].time){\r\n            Vaults[msg.sender].isLocked = false;\r\n        }\r\n\r\n        require(Vaults[msg.sender].isLocked == false, \"Your vault is still locked!\");\r\n        require(balances[msg.sender] != 0, \"You do not have any funds in this contract!\");\r\n        \r\n        uint toTransfer = Vaults[msg.sender].amount;\r\n        balances[msg.sender] -= toTransfer;\r\n        payable(msg.sender).transfer(toTransfer);\r\n        \r\n    }\r\n    \r\n    function showBalance() public view returns(uint){\r\n        return balances[msg.sender];\r\n    }\r\n}",
  "sourcePath": "C:/Users/sound/Desktop/React/ETHLocker/contracts/UlyssesContract.sol",
  "compiler": {
    "name": "solc",
    "version": "0.8.0+commit.c7dfd78e.Emscripten.clang"
  },
  "schemaVersion": "3.3.4",
  "updatedAt": "2021-04-03T08:38:22.397Z",
  "networkType": "ethereum",
  "devdoc": {
    "kind": "dev",
    "methods": {},
    "version": 1
  },
  "userdoc": {
    "kind": "user",
    "methods": {},
    "version": 1
  }
}