{
  "contractName": "UlyssesContract",
  "abi": [
    {
      "inputs": [],
      "stateMutability": "nonpayable",
      "type": "constructor"
    },
    {
      "inputs": [
        {
          "internalType": "address",
          "name": "",
          "type": "address"
        }
      ],
      "name": "Vaults",
      "outputs": [
        {
          "internalType": "address",
          "name": "User",
          "type": "address"
        },
        {
          "internalType": "uint256",
          "name": "amount",
          "type": "uint256"
        },
        {
          "internalType": "bool",
          "name": "isLocked",
          "type": "bool"
        },
        {
          "internalType": "uint256",
          "name": "timeLockedAt",
          "type": "uint256"
        },
        {
          "internalType": "uint256",
          "name": "time",
          "type": "uint256"
        }
      ],
      "stateMutability": "view",
      "type": "function",
      "constant": true
    },
    {
      "inputs": [
        {
          "internalType": "address",
          "name": "",
          "type": "address"
        }
      ],
      "name": "balances",
      "outputs": [
        {
          "internalType": "uint256",
          "name": "",
          "type": "uint256"
        }
      ],
      "stateMutability": "view",
      "type": "function",
      "constant": true
    },
    {
      "inputs": [],
      "name": "showCurrentTimestamp",
      "outputs": [
        {
          "internalType": "uint256",
          "name": "",
          "type": "uint256"
        }
      ],
      "stateMutability": "nonpayable",
      "type": "function"
    },
    {
      "inputs": [],
      "name": "forceWithdraw",
      "outputs": [],
      "stateMutability": "payable",
      "type": "function",
      "payable": true
    },
    {
      "inputs": [],
      "name": "deposit",
      "outputs": [],
      "stateMutability": "payable",
      "type": "function",
      "payable": true
    },
    {
      "inputs": [
        {
          "internalType": "uint256",
          "name": "_timeToLock",
          "type": "uint256"
        }
      ],
      "name": "createVault",
      "outputs": [],
      "stateMutability": "nonpayable",
      "type": "function"
    },
    {
      "inputs": [],
      "name": "showVault",
      "outputs": [
        {
          "internalType": "address",
          "name": "",
          "type": "address"
        },
        {
          "internalType": "uint256",
          "name": "",
          "type": "uint256"
        },
        {
          "internalType": "bool",
          "name": "",
          "type": "bool"
        },
        {
          "internalType": "uint256",
          "name": "",
          "type": "uint256"
        },
        {
          "internalType": "uint256",
          "name": "",
          "type": "uint256"
        },
        {
          "internalType": "uint256",
          "name": "",
          "type": "uint256"
        }
      ],
      "stateMutability": "nonpayable",
      "type": "function"
    },
    {
      "inputs": [],
      "name": "withdraw",
      "outputs": [],
      "stateMutability": "payable",
      "type": "function",
      "payable": true
    },
    {
      "inputs": [],
      "name": "showBalance",
      "outputs": [
        {
          "internalType": "uint256",
          "name": "",
          "type": "uint256"
        }
      ],
      "stateMutability": "view",
      "type": "function",
      "constant": true
    }
  ],
  "bytecode": "0x608060405234801561001057600080fd5b50336000806101000a81548173ffffffffffffffffffffffffffffffffffffffff021916908373ffffffffffffffffffffffffffffffffffffffff1602179055506114f1806100606000396000f3fe6080604052600436106100865760003560e01c806381b2d07b1161005957806381b2d07b1461011d5780639abbdf4b14610148578063b7e6bd7714610171578063d0e30db01461019c578063eb70095d146101a657610086565b806327e235e31461008b5780633ccfd60b146100c85780634d9d6763146100d25780637be80b3914610113575b600080fd5b34801561009757600080fd5b506100b260048036038101906100ad9190610ed5565b6101d6565b6040516100bf91906112a6565b60405180910390f35b6100d06101ee565b005b3480156100de57600080fd5b506100f960048036038101906100f49190610ed5565b6103ee565b60405161010a959493929190611152565b60405180910390f35b61011b610451565b005b34801561012957600080fd5b506101326107cc565b60405161013f91906112a6565b60405180910390f35b34801561015457600080fd5b5061016f600480360381019061016a9190610efe565b610813565b005b34801561017d57600080fd5b50610186610b1e565b60405161019391906112a6565b60405180910390f35b6101a4610b26565b005b3480156101b257600080fd5b506101bb610b7e565b6040516101cd969594939291906111a5565b60405180910390f35b60016020528060005260406000206000915090505481565b60001515600260003373ffffffffffffffffffffffffffffffffffffffff1673ffffffffffffffffffffffffffffffffffffffff16815260200190815260200160002060020160009054906101000a900460ff16151514610284576040517f08c379a000000000000000000000000000000000000000000000000000000000815260040161027b90611246565b60405180910390fd5b6000600160003373ffffffffffffffffffffffffffffffffffffffff1673ffffffffffffffffffffffffffffffffffffffff168152602001908152602001600020541415610307576040517f08c379a00000000000000000000000000000000000000000000000000000000081526004016102fe90611226565b60405180910390fd5b6000600260003373ffffffffffffffffffffffffffffffffffffffff1673ffffffffffffffffffffffffffffffffffffffff16815260200190815260200160002060010154905080600160003373ffffffffffffffffffffffffffffffffffffffff1673ffffffffffffffffffffffffffffffffffffffff168152602001908152602001600020600082825461039d91906113b3565b925050819055503373ffffffffffffffffffffffffffffffffffffffff166108fc829081150290604051600060405180830381858888f193505050501580156103ea573d6000803e3d6000fd5b5050565b60026020528060005260406000206000915090508060000160009054906101000a900473ffffffffffffffffffffffffffffffffffffffff16908060010154908060020160009054906101000a900460ff16908060030154908060040154905085565b6001600260003373ffffffffffffffffffffffffffffffffffffffff1673ffffffffffffffffffffffffffffffffffffffff16815260200190815260200160002060020160006101000a81548160ff02191690831515021790556104ea576040517f08c379a00000000000000000000000000000000000000000000000000000000081526004016104e190611266565b60405180910390fd5b6000604b6064600160003373ffffffffffffffffffffffffffffffffffffffff1673ffffffffffffffffffffffffffffffffffffffff1681526020019081526020016000205461053a9190611328565b6105449190611359565b9050600060196064600160003373ffffffffffffffffffffffffffffffffffffffff1673ffffffffffffffffffffffffffffffffffffffff168152602001908152602001600020546105969190611328565b6105a09190611359565b90506000600160003373ffffffffffffffffffffffffffffffffffffffff1673ffffffffffffffffffffffffffffffffffffffff168152602001908152602001600020819055506000600260003373ffffffffffffffffffffffffffffffffffffffff1673ffffffffffffffffffffffffffffffffffffffff168152602001908152602001600020600101819055506000600260003373ffffffffffffffffffffffffffffffffffffffff1673ffffffffffffffffffffffffffffffffffffffff16815260200190815260200160002060020160006101000a81548160ff0219169083151502179055506000600260003373ffffffffffffffffffffffffffffffffffffffff1673ffffffffffffffffffffffffffffffffffffffff168152602001908152602001600020600401819055506000600260003373ffffffffffffffffffffffffffffffffffffffff1673ffffffffffffffffffffffffffffffffffffffff168152602001908152602001600020600301819055503373ffffffffffffffffffffffffffffffffffffffff166108fc839081150290604051600060405180830381858888f19350505050158015610760573d6000803e3d6000fd5b5060008054906101000a900473ffffffffffffffffffffffffffffffffffffffff1673ffffffffffffffffffffffffffffffffffffffff166108fc829081150290604051600060405180830381858888f193505050501580156107c7573d6000803e3d6000fd5b505050565b6000600160003373ffffffffffffffffffffffffffffffffffffffff1673ffffffffffffffffffffffffffffffffffffffff16815260200190815260200160002054905090565b6000600160003373ffffffffffffffffffffffffffffffffffffffff1673ffffffffffffffffffffffffffffffffffffffff1681526020019081526020016000205411610895576040517f08c379a000000000000000000000000000000000000000000000000000000000815260040161088c90611206565b60405180910390fd5b60001515600260003373ffffffffffffffffffffffffffffffffffffffff1673ffffffffffffffffffffffffffffffffffffffff16815260200190815260200160002060020160009054906101000a900460ff1615151461092b576040517f08c379a000000000000000000000000000000000000000000000000000000000815260040161092290611286565b60405180910390fd5b33600260003373ffffffffffffffffffffffffffffffffffffffff1673ffffffffffffffffffffffffffffffffffffffff16815260200190815260200160002060000160006101000a81548173ffffffffffffffffffffffffffffffffffffffff021916908373ffffffffffffffffffffffffffffffffffffffff160217905550600160003373ffffffffffffffffffffffffffffffffffffffff1673ffffffffffffffffffffffffffffffffffffffff16815260200190815260200160002054600260003373ffffffffffffffffffffffffffffffffffffffff1673ffffffffffffffffffffffffffffffffffffffff168152602001908152602001600020600101819055506001600260003373ffffffffffffffffffffffffffffffffffffffff1673ffffffffffffffffffffffffffffffffffffffff16815260200190815260200160002060020160006101000a81548160ff02191690831515021790555042600260003373ffffffffffffffffffffffffffffffffffffffff1673ffffffffffffffffffffffffffffffffffffffff1681526020019081526020016000206003018190555080600260003373ffffffffffffffffffffffffffffffffffffffff1673ffffffffffffffffffffffffffffffffffffffff1681526020019081526020016000206004018190555050565b600042905090565b34600160003373ffffffffffffffffffffffffffffffffffffffff1673ffffffffffffffffffffffffffffffffffffffff1681526020019081526020016000206000828254610b7591906112d2565b92505081905550565b600080600080600080600260003373ffffffffffffffffffffffffffffffffffffffff1673ffffffffffffffffffffffffffffffffffffffff16815260200190815260200160002060040154600260003373ffffffffffffffffffffffffffffffffffffffff1673ffffffffffffffffffffffffffffffffffffffff16815260200190815260200160002060030154610c1791906112d2565b421115610c7a576000600260003373ffffffffffffffffffffffffffffffffffffffff1673ffffffffffffffffffffffffffffffffffffffff16815260200190815260200160002060020160006101000a81548160ff0219169083151502179055505b600042600260003373ffffffffffffffffffffffffffffffffffffffff1673ffffffffffffffffffffffffffffffffffffffff16815260200190815260200160002060040154600260003373ffffffffffffffffffffffffffffffffffffffff1673ffffffffffffffffffffffffffffffffffffffff16815260200190815260200160002060030154610d0d91906112d2565b610d1791906113b3565b9050600260003373ffffffffffffffffffffffffffffffffffffffff1673ffffffffffffffffffffffffffffffffffffffff16815260200190815260200160002060000160009054906101000a900473ffffffffffffffffffffffffffffffffffffffff16600260003373ffffffffffffffffffffffffffffffffffffffff1673ffffffffffffffffffffffffffffffffffffffff16815260200190815260200160002060010154600260003373ffffffffffffffffffffffffffffffffffffffff1673ffffffffffffffffffffffffffffffffffffffff16815260200190815260200160002060020160009054906101000a900460ff16600260003373ffffffffffffffffffffffffffffffffffffffff1673ffffffffffffffffffffffffffffffffffffffff16815260200190815260200160002060030154600260003373ffffffffffffffffffffffffffffffffffffffff1673ffffffffffffffffffffffffffffffffffffffff168152602001908152602001600020600401548596509650965096509650965050909192939495565b600081359050610eba8161148d565b92915050565b600081359050610ecf816114a4565b92915050565b600060208284031215610ee757600080fd5b6000610ef584828501610eab565b91505092915050565b600060208284031215610f1057600080fd5b6000610f1e84828501610ec0565b91505092915050565b610f30816113e7565b82525050565b610f3f816113f9565b82525050565b6000610f526041836112c1565b91507f496e73756666696369656e742062616c616e636520746f207369676e20556c7960008301527f7373657320436f6e747261637421204465706f7369742045544820666972737460208301527f21000000000000000000000000000000000000000000000000000000000000006040830152606082019050919050565b6000610fde602b836112c1565b91507f596f7520646f206e6f74206861766520616e792066756e647320696e2074686960008301527f7320636f6e7472616374210000000000000000000000000000000000000000006020830152604082019050919050565b6000611044601b836112c1565b91507f596f7572207661756c74206973207374696c6c206c6f636b65642100000000006000830152602082019050919050565b60006110846034836112c1565b91507f596f757220455448206973206e6f74206c6f636b65642c20757365206e6f726d60008301527f616c20776974686472617720696e7374656164210000000000000000000000006020830152604082019050919050565b60006110ea6021836112c1565b91507f596f75207374696c6c20686176652061207369676e656420636f6e747261637460008301527f21000000000000000000000000000000000000000000000000000000000000006020830152604082019050919050565b61114c81611425565b82525050565b600060a0820190506111676000830188610f27565b6111746020830187611143565b6111816040830186610f36565b61118e6060830185611143565b61119b6080830184611143565b9695505050505050565b600060c0820190506111ba6000830189610f27565b6111c76020830188611143565b6111d46040830187610f36565b6111e16060830186611143565b6111ee6080830185611143565b6111fb60a0830184611143565b979650505050505050565b6000602082019050818103600083015261121f81610f45565b9050919050565b6000602082019050818103600083015261123f81610fd1565b9050919050565b6000602082019050818103600083015261125f81611037565b9050919050565b6000602082019050818103600083015261127f81611077565b9050919050565b6000602082019050818103600083015261129f816110dd565b9050919050565b60006020820190506112bb6000830184611143565b92915050565b600082825260208201905092915050565b60006112dd82611425565b91506112e883611425565b9250827fffffffffffffffffffffffffffffffffffffffffffffffffffffffffffffffff0382111561131d5761131c61142f565b5b828201905092915050565b600061133382611425565b915061133e83611425565b92508261134e5761134d61145e565b5b828204905092915050565b600061136482611425565b915061136f83611425565b9250817fffffffffffffffffffffffffffffffffffffffffffffffffffffffffffffffff04831182151516156113a8576113a761142f565b5b828202905092915050565b60006113be82611425565b91506113c983611425565b9250828210156113dc576113db61142f565b5b828203905092915050565b60006113f282611405565b9050919050565b60008115159050919050565b600073ffffffffffffffffffffffffffffffffffffffff82169050919050565b6000819050919050565b7f4e487b7100000000000000000000000000000000000000000000000000000000600052601160045260246000fd5b7f4e487b7100000000000000000000000000000000000000000000000000000000600052601260045260246000fd5b611496816113e7565b81146114a157600080fd5b50565b6114ad81611425565b81146114b857600080fd5b5056fea2646970667358221220c921c255f19e155dadf553b6aa016e39d0ecf3750d956a8b0cbcc49bf2520e6b64736f6c63430008000033",
  "immutableReferences": {},
  "source": "pragma solidity ^0.8.0;\r\n\r\ncontract UlyssesContract{\r\n    \r\n    address owner;\r\n    \r\n    constructor() public {\r\n        owner = msg.sender;\r\n    }\r\n\r\n    struct Locker {\r\n        address User;\r\n        uint amount;\r\n        bool isLocked;\r\n        uint timeLockedAt;\r\n        uint time;\r\n    } \r\n\r\n    mapping (address => uint) public balances;\r\n    mapping (address => Locker) public Vaults;\r\n    \r\n    \r\n    function showCurrentTimestamp() public returns(uint){\r\n        return block.timestamp;\r\n    }\r\n    function forceWithdraw() public payable {\r\n        require(Vaults[msg.sender].isLocked = true, \"Your ETH is not locked, use normal withdraw instead!\");\r\n        uint toTransfer = balances[msg.sender] / 100 * 75;\r\n        uint donation = balances[msg.sender] / 100 * 25;\r\n        balances[msg.sender] = 0;\r\n        Vaults[msg.sender].amount = 0;\r\n        Vaults[msg.sender].isLocked = false;\r\n        Vaults[msg.sender].time = 0;\r\n        Vaults[msg.sender].timeLockedAt = 0;\r\n        payable(msg.sender).transfer(toTransfer);\r\n        payable(owner).transfer(donation);\r\n    }\r\n    \r\n\r\n    function deposit() public payable {\r\n        balances[msg.sender] += msg.value;\r\n    }\r\n\r\n\r\n    function createVault(uint _timeToLock) public {\r\n        require(balances[msg.sender] > 0, \"Insufficient balance to sign Ulysses Contract! Deposit ETH first!\");\r\n        require(Vaults[msg.sender].isLocked == false, \"You still have a signed contract!\");\r\n        Vaults[msg.sender].User = msg.sender;\r\n        Vaults[msg.sender].amount = balances[msg.sender];\r\n        Vaults[msg.sender].isLocked = true;\r\n        Vaults[msg.sender].timeLockedAt = block.timestamp;\r\n        Vaults[msg.sender].time = _timeToLock;\r\n    }\r\n    \r\n    function showVault() public returns(address, uint, bool, uint, uint, uint){\r\n        \r\n        if(block.timestamp > Vaults[msg.sender].timeLockedAt + Vaults[msg.sender].time){\r\n            Vaults[msg.sender].isLocked = false;\r\n        }\r\n                   uint timeLeft = Vaults[msg.sender].timeLockedAt + Vaults[msg.sender].time - block.timestamp;\r\n       return (Vaults[msg.sender].User, Vaults[msg.sender].amount, Vaults[msg.sender].isLocked, Vaults[msg.sender].timeLockedAt, Vaults[msg.sender].time, timeLeft);\r\n    }\r\n    \r\n    function withdraw() public payable {\r\n        require(Vaults[msg.sender].isLocked == false, \"Your vault is still locked!\");\r\n        require(balances[msg.sender] != 0, \"You do not have any funds in this contract!\");\r\n        \r\n        uint toTransfer = Vaults[msg.sender].amount;\r\n        balances[msg.sender] -= toTransfer;\r\n        payable(msg.sender).transfer(toTransfer);\r\n        \r\n    }\r\n    \r\n    function showBalance() public view returns(uint){\r\n        return balances[msg.sender];\r\n    }\r\n}",
  "sourcePath": "C:/Users/sound/Desktop/React/ETHLocker/contracts/UlyssesContract.sol",
  "compiler": {
    "name": "solc",
    "version": "0.8.0+commit.c7dfd78e.Emscripten.clang"
  },
  "schemaVersion": "3.3.4",
  "updatedAt": "2021-03-31T18:47:01.680Z",
  "networkType": "ethereum",
  "devdoc": {
    "kind": "dev",
    "methods": {},
    "version": 1
  },
  "userdoc": {
    "kind": "user",
    "methods": {},
    "version": 1
  }
}